:1000000053C06AC36CC06BC06AC069C068C067C0B7
:1000100066C065C064C063C062C0D0C460C05FC059
:100020005EC05DC05CC05BC05AC059C058C057C0FC
:1000300056C055C0040309040E035400680069004B
:100040006E0067004D000C034C0069006E006B00F1
:100050004D001201100100000008A0201041000115
:10006000010200010902220001010080FA090400D6
:100070000001030000000921010100012221000705
:100080000581030800640600FF0901A1011500268F
:10009000FF007508850195100900B20201850295DF
:1000A000830900B20201C00011241FBECFEFD4E0CB
:1000B000DEBFCDBF11E0A0E0B1E0ECE6F0E102C0B0
:1000C00005900D92A431B107D9F711E0A4E1B1E098
:1000D00001C01D92A63DB107E1F72BD5C5C790CF52
:1000E0001092B90084E38093B800089520E030E0D6
:1000F00094E00AC0892F8A95F1F72536310511F46D
:1001000081E008952F5F3F4F8091BC0087FFF2CFC1
:1001100080E008951F93182F84EA8093BC00E6DFE7
:100120008823B9F48091B900887F883011F080313C
:1001300081F41093BB0084E88093BC00D7DF882350
:1001400041F49091B900987F983121F080E090348B
:1001500009F081E01F910895982F44EA34E824E9DA
:100160004093BC008091BC0087FFFCCF8091B90018
:10017000887F883011F0803199F79093BB003093DD
:10018000BC008091BC0087FFFCCF8091B900887FC4
:10019000803211F0883539F42093BC008091BC0086
:1001A00084FDFCCFDDCF0895B5DF089584E9809309
:1001B000BC0090E024E006C0822F8A95F1F79536C6
:1001C00029F09F5F8091BC0084FDF6CF0895809355
:1001D000BB0084E88093BC0089DF882331F48091E0
:1001E000B90090E0887F883209F091E0892F089566
:1001F00084EC8093BC007ADF882319F02FEF3FEF67
:1002000004C08091BB00282F30E0C901089584E824
:100210008093BC006BDF882319F02FEF3FEF04C001
:100220008091BB00282F30E0C90108951092C500CD
:100230008CE08093C400E0ECF0E0808182608083F9
:1002400088E18093C10008951F93182F8A3011F41C
:100250008DE0FADF8091C00085FFFCCF1093C600CF
:1002600080E090E01F910895EF92FF920F931F930B
:10027000CF93DF937C018091140190911501892B1C
:1002800009F092C006E111E08091C00087FFFCCF29
:100290008091C00084FF03C02EEF3FEF99C0809192
:1002A000C00083FD93C09091C6009D3011F09A303C
:1002B00061F48AE0F8018083B701C6DF86E191E04E
:1002C00090931501809314016FC0993009F490E266
:1002D000892F80528F3510F0903A68F0F1E00536A2
:1002E0001F0711F487E004C0F80191938F01892F53
:1002F000B701AADFC9CF923121F1933138F493309D
:1003000009F464C0983009F0BFCF09C0973109F4EF
:1003100040C09F3721F0953109F0B6CF2AC0F1E0F7
:1003200006311F0709F008F4AFCF88E0B7018CDF72
:1003300080E2B70189DF88E0B70186DF0150104015
:10034000A3CF8DE0B70180DFC6E1D1E003C0899182
:10035000B7017ADFC017D107D0F396CF88E0B70195
:1003600073DF80E2B70170DF88E0B7016DDF015015
:10037000104081E00631180709F080F785CF88E04A
:10038000B70162DF80E2B7015FDF88E0B7015CDFC1
:100390008E01E1E006311E0709F008F475CFE8018F
:1003A0008A91803261F770CFE0911401F0911501CC
:1003B0008191F0931501E09314018A3021F4109299
:1003C000150110921401282F30E002C02FEF3FEFEB
:1003D000C901DF91CF911F910F91FF90EF90089588
:1003E000E9E6F0E0808182608083E89A8BE4809384
:1003F0009D018AE580939C0108951F93DC01162FCF
:1004000080919C0184FF07C080919D0198E8892715
:1004100080939D0103C08AE580939C01912FEEE9B2
:10042000F1E08D91819391501916DCF38EE991E002
:10043000612F4ED11C5F10939C011F9108951F9353
:10044000CF93DF936091AD01635067FDC2C080918F
:10045000AA01CCE0D0E0C81BD109CF54DE4F809177
:10046000A9018D3209F0A3C0683009F0B0C083EC57
:10047000809391018AE58093000110926601888142
:10048000807639F0CE017CD2282F8F3F09F47EC0D0
:1004900084C09A8110929A018981882321F4109254
:1004A0009B0122E06CC0853019F49093AE0166C0C8
:1004B000863009F04FC08B81813041F482E590E0B5
:1004C0009093AC018093AB0122E140C0823041F4B3
:1004D00084E690E09093AC018093AB0122E236C0B9
:1004E0008330F9F48A81882341F484E390E0909387
:1004F000AC018093AB0124E029C0813041F488E352
:1005000090E09093AC018093AB012EE01FC082304D
:10051000E1F486E490E09093AC018093AB012CE091
:1005200015C0813241F486E790E09093AC0180934E
:10053000AB0129E00BC0823241F486E890E0909351
:10054000AC018093AB0121E201C020E080E4809304
:10055000660123C0883021F421E080EB91E011C0D6
:10056000893019F49093B00109C08A3011F421E068
:1005700006C08B3019F48BE480939D0120E08AE95A
:1005800091E09093AC018093AB0107C0888187FD17
:100590002E8180E88093660106C08F81882319F43C
:1005A0008E81821708F0822F8093010110C0809104
:1005B000660187FF0CC0CE01C7D48F3F21F48EE1C6
:1005C0008093000104C0882311F010920101109261
:1005D000AD018091000184FF58C0809101018F3FDF
:1005E00009F453C0182F893008F018E0811B80935C
:1005F00001018091910198E889278093910111234D
:1006000091F18091660187FF08C082E991E0612F36
:1006100003D3182F893098F526C02091AB01309173
:10062000AC0186FF0DC0A2E9B1E080E090E0F901E5
:10063000E80FF91FE491ED9301961817C1F708C070
:10064000912FD901E2E9F1E08D9181939150E1F789
:100650001150812F90E01F5F0196820F931F90939E
:10066000AC018093AB0182E991E0612F31D0612F21
:100670006C5F6C3041F08FEF8093010104C08FEF0D
:10068000809301016EE16093000194E189B18C7067
:1006900031F49150D9F71092AE011092A801DF9178
:1006A000CF911F910895A82FB92F80E090E041E0ED
:1006B00050EA60956F5F58F42D9138EF8227979537
:1006C000879510F0842795273F5FC8F3F3CF0895EF
:1006D000EADF8D939D930895CF93CFB7CF93C395C2
:1006E0004B9BE9F74B9B09C04B9B07C04B9B05C03D
:1006F0004B9B03C04B9B01C0A3C0DF93C091AA01D9
:10070000DD27CF54DE4F4B9B02C0DF91EBCF2F9301
:100710000F931F9309B12FEF03FB20F94F933F93E2
:1007200019B14FEF012703FB21F93BE031C04E7FA8
:10073000012F19B1216028C0102F4D7F22600000C9
:1007400009B129C04B7F2460012F000019B12BC0D3
:1007500019B1477F28602AC04F7E09B120612CC0A3
:100760004F7D19B120622FC04F7B09B1206432C088
:10077000422709B149934FEF0000102713FB20F9DE
:1007800019B11C70C9F1297F91F2012703FB21F9EE
:1007900009B1237F89F2315058F1102713FB22F958
:1007A00019B1277E79F2012703FB23F92F7C81F20F
:1007B00009B1102713FB24F92F7971F200C019B188
:1007C000012703FB25F92F7359F200C009B1102747
:1007D00013FB26F9223040F200C019B1012703FBB8
:1007E00027F9243028F64F77206819B10000F9CF97
:1007F00011E01CBB002719C03B503195C31BD040F2
:1008000011E01CBB0881033CF9F00B34E9F02091A6
:10081000A8011981110F1213EDCF4A81441F093627
:1008200041F10D3211F0013E29F70093AF013F91E4
:100830004F911F910F912F91DF91CCB3C0FD4FCFFE
:10084000CF91CFBFCF9118952091AF01222379F39B
:100850001091AD01112369F534306AF13093AD0187
:100860002093A9011091AA013BE0311B3093AA010A
:1008700022C00091AD010130E4F40AE54F7049F463
:100880003091000134FD19C000930001C1E9D1E0AD
:1008900018C030919C0134FD10C000939C01CDE93B
:1008A000D1E00FC02795A8F45150A9F4220F000001
:1008B000F9CF4AE503C042ED01C0432FC4E1D0E0C7
:1008C00032E01AB11C605B9A1AB90BB120E41CE04B
:1008D0005F93012756E00BB9279520F4515021F47E
:1008E000220FF9CF012756E000003B5A0BB9D0F296
:1008F000279528F4515029F4220F0000F9CF012741
:1009000056E027950BB920F4515021F4220FF9CF6E
:10091000012756E0299133230BB921F6037F10916B
:10092000AE01110FC651D0400BB911F01093A801C0
:1009300011E01CBB08601AB1137F402F437F5F9109
:1009400000C000C00BB91AB94BB971CF85B190E1A5
:10095000892785B90895892B11F02C9A08952C9830
:10096000089583B190E024E0969587952A95E1F764
:1009700081700895892B11F02D9A08952D9808956E
:10098000FC01808180768032B9F4228181818130BE
:1009900011F0893089F4822F8150823068F42093DD
:1009A0008C01213011F083E801C080E1809369015E
:1009B000109268018FEF089580E008951F920F92C2
:1009C0000FB60F9211248F939F9380918F01909176
:1009D000900101969093900180938F0180918F01F7
:1009E00090919001069769F41092900110928F01F6
:1009F00080918D0190918E01019690938E0180934C
:100A00008D019F918F910F900FBE0F901F901895A1
:100A1000FF920F931F93162F042FF22E880F7ADB6D
:100A2000813021F4C3DB21E030E00BC080E7CFDB75
:100A3000812FCDDB802FCBDB8F2DC9DBB7DB20E017
:100A400030E0C9011F910F91FF9008958091C70177
:100A5000882369F120918D0130918E018091C90127
:100A600090E02817390718F110928E0110928D012D
:100A700080E06091C80140E02091CE01C9DF85B1DE
:100A800090E1892785B92091CE013091CF012F5F68
:100A90003F4F3093CF012093CE018091CA0190E067
:100AA0002817390721F41092CF011092CE01089532
:100AB0001F93162F880F2EDB813021F477DB21E086
:100AC00030E007C086E683DB812F81DB6FDB20E02F
:100AD00030E0C9011F910895FF920F931F93162FC5
:100AE000042FF22E880F16DB813021F45FDB21E02A
:100AF00030E00BC08EE66BDB812F69DB802F67DB7C
:100B00008F2D65DB53DB20E030E0C9011F910F9191
:100B1000FF900895880FFEDA813021F447DB21E051
:100B200030E005C08FE653DB41DB20E030E0C90157
:100B300008951F93CF93DF932EE088E190E00FB6E6
:100B4000F894A895809360000FBE2093600084B154
:100B5000806384B988B1806388B92C98C1DA2D9AF2
:100B600020E030E140E355E785B1832785B9A895BA
:100B7000CA010197F1F7CA010197F1F72F5F2430FD
:100B800099F787EC91E061E070E047E050E045D2F2
:100B900080E0C0DF80E060E040E020E09DDF609129
:100BA000CC01662311F080E083DF1ADC539A20E049
:100BB0004CE251E02C9A84EF91E0FA013197F1F781
:100BC0000197D9F72C9884EF91E0FA013197F1F76A
:100BD0000197D9F72F5F223069F7539880918100F0
:100BE000816080938100B09A80916F0081608093D2
:100BF0006F007894C0E3D5E7A89521DC27DF8091CA
:100C000067018823C9F310E01ADCCE010197F1F7E0
:100C10001F5F183CC9F7F0CF1F9320916901162F71
:100C2000261708F4122F2091680130E024583E4F17
:100C3000B901412F50E0B3D110926B0110926A01BB
:100C400080916801810F8093680180916901811B07
:100C500080936901812F1F910895DF92EF92FF9297
:100C60000F931F93CF93DF9380918C0180937C012E
:100C700010927D0180916D018A3D11F085E611C0D1
:100C800080916E01F0906F01D0907001813009F079
:100C90005AC00091710182E091E08AD107FF04C03F
:100CA00086E680937D0148C185E091E081D1802F67
:100CB000880F30DA813021F488E091E079D154C096
:100CC0008AE091E075D110E0CF2DD0E0219705C0EA
:100CD000EE58FE4F80817BDA1F5FE12FF0E0EC17CA
:100CE000FD07B4F38DE091E063D1DD2039F12C9A5A
:100CF000000F802F816058DA8130B1F05EE7E52E79
:100D000051E0F52EC0E0D0E00D2D10E00150104074
:100D100012C0C017D10711F06BDA01C078DA219642
:100D20002FEF8F3F920721F488E680937D0105C065
:100D3000F70181937F01CD1560F32C9880E191E05C
:100D400037D134DAF9C0823009F580917101009110
:100D5000720187FDA5CF880FDDD9813029F010E021
:100D6000CF2DD0E0219709C087E680937D01E9CFA0
:100D7000EE58FE4F80812BDA1F5FE12FF0E0EC1779
:100D8000FD07B4F3002309F0D7C0DBCF833041F572
:100D900080917101DD2009F483CF2C9A880F816046
:100DA00003DA813059F04EE7E42E41E0F42EC0E042
:100DB000D0E00D2D10E0015010400EC088E6809369
:100DC0007D010CC0C017D10711F012DA01C01FDA83
:100DD000F70181937F012196CD15A0F32C98B1CF17
:100DE000843049F5D090710180917201D7FC58CFC1
:100DF00087FD56CF8D1508F453CFC0E0D0E0FF2417
:100E0000082F10E00D1911090EC0EF2CED0C8E2DDE
:100E1000880F80D9882329F4FE01E458FE4FE3822D
:100E20002196C4D9F3948F2D90E0801791076CF32D
:100E3000C0937E0181C0853041F480917101882387
:100E400011F02D9A79C02D9877C0863039F4AED93B
:100E500088EB9BE00197F1F743D96EC0853641F4EA
:100E600080917101882311F02C9A66C02C9864C07F
:100E7000863659F483B190E034E0969587953A959B
:100E8000E1F7817080937E0157C08736B9F4A7ECF3
:100E9000B1E0E1E7F1E087E001900D928150E1F7E8
:100EA0008091CB018093CE011092CF016091CC0153
:100EB000662309F441C080E0FBDD3EC0883651F472
:100EC000AEE7B1E0E7ECF1E087E001900D928150F0
:100ED000E1F732C0893661F485B190E1892785B99F
:100EE00087EC91E061E070E047E050E0A6D024C0DC
:100EF0008A3661F485B190E1892785B987EC91E064
:100F000061E070E047E050E088D016C0843639F4E4
:100F100083E180937E0187E380937F010DC08B3650
:100F200059F485B190E1892785B980E090E065E5C5
:100F30008DD081E080936701DF91CF911F910F9158
:100F4000FF90EF90DF9008951F93582F792F809195
:100F50006901882301F1162F861708F4182F2091B4
:100F6000680130E024593E4FC901652F412F50E000
:100F700016D080916801810F80936801809169018A
:100F8000811B80936901882309F467DE90E08091DA
:100F90006901882309F491E0892F1F910895FB01CD
:100FA000DC0102C001900D9241505040D8F70895E5
:100FB0000F931F93CF93DF938C01E091D201F091B7
:100FC000D301838181FF21C0C0E0D0E00DC0E0915A
:100FD000D201F091D30120853185BF01F901099536
:100FE000892B11F0CFEFDFEFF80181918F0188237A
:100FF00071F7E091D201F091D301208531858AE02B
:10100000BF01F9010995892B11F0CFEFDFEFCE0178
:10101000DF91CF911F910F910895DC01CB01FC016D
:10102000F999FECF06C0F2BDE1BDF89A319600B441
:101030000D9241505040B8F70895DC01CB0102C039
:101040002D9105D041505040D8F70895262FF99999
:10105000FECF1FBA92BD81BD20BD0FB6F894FA9A9B
:0C106000F99A0FBE01960895F894FFCF96
:10106C005AFF412E00422E002100432E00442E0038
:04107C005A2E0A00DE
:00000001FF
