:1000000053C06AC36CC06BC06AC069C068C067C0B7
:1000100066C065C064C063C062C0D0C460C05FC059
:100020005EC05DC05CC05BC05AC059C058C057C0FC
:1000300056C055C0040309040E035400680069004B
:100040006E0067004D000C034C0069006E006B00F1
:100050004D001201100100000008A0201041000115
:10006000010200010902220001010080FA090400D6
:100070000001030000000921010100012221000705
:100080000581030800640600FF0901A1011500268F
:10009000FF007508850195100900B20201850295DF
:1000A000830900B20201C00011241FBECFEFD4E0CB
:1000B000DEBFCDBF11E0A0E0B1E0E6E4F6E102C0B2
:1000C00005900D92A233B107D9F711E0A2E3B1E098
:1000D00001C01D92A23FB107E1F72BD5B2CA90CF64
:1000E0001092B90084E38093B800089520E030E0D6
:1000F00094E00AC0892F8A95F1F72536310511F46D
:1001000081E008952F5F3F4F8091BC0087FFF2CFC1
:1001100080E008951F93182F84EA8093BC00E6DFE7
:100120008823B9F48091B900887F883011F080313C
:1001300081F41093BB0084E88093BC00D7DF882350
:1001400041F49091B900987F983121F080E090348B
:1001500009F081E01F910895982F44EA34E824E9DA
:100160004093BC008091BC0087FFFCCF8091B90018
:10017000887F883011F0803199F79093BB003093DD
:10018000BC008091BC0087FFFCCF8091B900887FC4
:10019000803211F0883539F42093BC008091BC0086
:1001A00084FDFCCFDDCF0895B5DF089584E9809309
:1001B000BC0090E024E006C0822F8A95F1F79536C6
:1001C00029F09F5F8091BC0084FDF6CF0895809355
:1001D000BB0084E88093BC0089DF882331F48091E0
:1001E000B90090E0887F883209F091E0892F089566
:1001F00084EC8093BC007ADF882319F02FEF3FEF67
:1002000004C08091BB00282F30E0C901089584E824
:100210008093BC006BDF882319F02FEF3FEF04C001
:100220008091BB00282F30E0C90108951092C500CD
:100230008CE08093C400E0ECF0E0808182608083F9
:1002400088E18093C10008951F93182F8A3011F41C
:100250008DE0FADF8091C00085FFFCCF1093C600CF
:1002600080E090E01F910895EF92FF920F931F930B
:10027000CF93DF937C018091320190913301892BE0
:1002800009F092C004E311E08091C00087FFFCCF29
:100290008091C00084FF03C02EEF3FEF99C0809192
:1002A000C00083FD93C09091C6009D3011F09A303C
:1002B00061F48AE0F8018083B701C6DF84E391E04E
:1002C00090933301809332016FC0993009F490E22A
:1002D000892F80528F3510F0903A68F0F1E00338A2
:1002E0001F0711F487E004C0F80191938F01892F53
:1002F000B701AADFC9CF923121F1933138F493309D
:1003000009F464C0983009F0BFCF09C0973109F4EF
:1003100040C09F3721F0953109F0B6CF2AC0F1E0F7
:1003200004331F0709F008F4AFCF88E0B7018CDF72
:1003300080E2B70189DF88E0B70186DF0150104015
:10034000A3CF8DE0B70180DFC4E3D1E003C0899182
:10035000B7017ADFC017D107D0F396CF88E0B70195
:1003600073DF80E2B70170DF88E0B7016DDF015015
:10037000104081E00433180709F080F785CF88E04A
:10038000B70162DF80E2B7015FDF88E0B7015CDFC1
:100390008E01E1E004331E0709F008F475CFE8018F
:1003A0008A91803261F770CFE0913201F091330190
:1003B0008191F0933301E09332018A3021F410925D
:1003C000330110923201282F30E002C02FEF3FEFAF
:1003D000C901DF91CF911F910F91FF90EF90089588
:1003E000E9E6F0E0808182608083E89A8BE4809384
:1003F000B9018AE58093B80108951F93DC01162F97
:100400008091B80184FF07C08091B90198E88927DD
:100410008093B90103C08AE58093B801912FEAEB7C
:10042000F1E08D91819391501916DCF38AEB91E004
:10043000612F4ED11C5F1093B8011F9108951F9337
:10044000CF93DF936091C901635067FDC2C0809173
:10045000C601CCE0D0E0C81BD109C353DE4F809168
:10046000C5018D3209F0A3C0683009F0B0C083EC3B
:100470008093AD018AE58093000110928401888108
:10048000807639F0CE017CD2282F8F3F09F47EC0D0
:1004900084C09A811092B6018981882321F4109238
:1004A000B70122E06CC0853019F49093CA0166C090
:1004B000863009F04FC08B81813041F482E590E0B5
:1004C0009093C8018093C70122E140C0823041F47B
:1004D00084E690E09093C8018093C70122E236C081
:1004E0008330F9F48A81882341F484E390E0909387
:1004F000C8018093C70124E029C0813041F488E31A
:1005000090E09093C8018093C7012EE01FC0823015
:10051000E1F486E490E09093C8018093C7012CE059
:1005200015C0813241F486E790E09093C801809332
:10053000C70129E00BC0823241F486E890E0909335
:10054000C8018093C70121E201C020E080E48093CC
:10055000840123C0883021F421E08CEC91E011C0AB
:10056000893019F49093CC0109C08A3011F421E04C
:1005700006C08B3019F48BE48093B90120E086EB40
:1005800091E09093C8018093C70107C0888187FDDF
:100590002E8180E88093840106C08F81882319F41E
:1005A0008E81821708F0822F8093010110C0809104
:1005B000840187FF0CC0CE01FDD48F3F21F48EE172
:1005C0008093000104C0882311F010920101109261
:1005D000C9018091000184FF58C0809101018F3FC3
:1005E00009F453C0182F893008F018E0811B80935C
:1005F00001018091AD0198E889278093AD01112315
:1006000091F18091840187FF08C08EEA91E0612F0B
:1006100011D3182F893098F526C02091C701309149
:10062000C80186FF0DC0AEEAB1E080E090E0F901BC
:10063000E80FF91FE491ED9301961817C1F708C070
:10064000912FD901EEEAF1E08D9181939150E1F77C
:100650001150812F90E01F5F0196820F931F90939E
:10066000C8018093C7018EEA91E0612F31D0612FDC
:100670006C5F6C3041F08FEF8093010104C08FEF0D
:10068000809301016EE16093000194E189B18C7067
:1006900031F49150D9F71092CA011092C401DF9140
:1006A000CF911F910895A82FB92F80E090E041E0ED
:1006B00050EA60956F5F58F42D9138EF8227979537
:1006C000879510F0842795273F5FC8F3F3CF0895EF
:1006D000EADF8D939D930895CF93CFB7CF93C395C2
:1006E0004B9BE9F74B9B09C04B9B07C04B9B05C03D
:1006F0004B9B03C04B9B01C0A3C0DF93C091C601BD
:10070000DD27C353DE4F4B9B02C0DF91EBCF2F930E
:100710000F931F9309B12FEF03FB20F94F933F93E2
:1007200019B14FEF012703FB21F93BE031C04E7FA8
:10073000012F19B1216028C0102F4D7F22600000C9
:1007400009B129C04B7F2460012F000019B12BC0D3
:1007500019B1477F28602AC04F7E09B120612CC0A3
:100760004F7D19B120622FC04F7B09B1206432C088
:10077000422709B149934FEF0000102713FB20F9DE
:1007800019B11C70C9F1297F91F2012703FB21F9EE
:1007900009B1237F89F2315058F1102713FB22F958
:1007A00019B1277E79F2012703FB23F92F7C81F20F
:1007B00009B1102713FB24F92F7971F200C019B188
:1007C000012703FB25F92F7359F200C009B1102747
:1007D00013FB26F9223040F200C019B1012703FBB8
:1007E00027F9243028F64F77206819B10000F9CF97
:1007F00011E01CBB002719C03B503195C31BD040F2
:1008000011E01CBB0881033CF9F00B34E9F02091A6
:10081000C4011981110F1213EDCF4A81441F09360B
:1008200041F10D3211F0013E29F70093CB013F91C8
:100830004F911F910F912F91DF91CCB3C0FD4FCFFE
:10084000CF91CFBFCF9118952091CB01222379F37F
:100850001091C901112369F534306AF13093C9014F
:100860002093C5011091C6013BE0311B3093C601B6
:1008700022C00091C9010130E4F40AE54F7049F447
:100880003091000134FD19C000930001CDEAD1E0A0
:1008900018C03091B80134FD10C00093B801C9EB05
:1008A000D1E00FC02795A8F45150A9F4220F000001
:1008B000F9CF4AE503C042ED01C0432FC4E1D0E0C7
:1008C00032E01AB11C605B9A1AB90BB120E41CE04B
:1008D0005F93012756E00BB9279520F4515021F47E
:1008E000220FF9CF012756E000003B5A0BB9D0F296
:1008F000279528F4515029F4220F0000F9CF012741
:1009000056E027950BB920F4515021F4220FF9CF6E
:10091000012756E0299133230BB921F6037F10916B
:10092000CA01110FC651D0400BB911F01093C40188
:1009300011E01CBB08601AB1137F402F437F5F9109
:1009400000C000C00BB91AB94BB971CF85B190E1A5
:10095000892785B90895892B11F02C9A08952C9830
:10096000089583B190E024E0969587952A95E1F764
:1009700081700895892B11F02D9A08952D9808956E
:10098000FC01808180768032B9F4228181818130BE
:1009900011F0893089F4822F8150823068F42093DD
:1009A000A801213011F083E801C080E18093870124
:1009B000109286018FEF089580E008951F920F92A4
:1009C0000FB60F9211248F939F938091AB0190915A
:1009D000AC0101969093AC018093AB018091AB0187
:1009E0009091AC01069769F41092AC011092AB01A2
:1009F0008091A9019091AA0101969093AA018093F8
:100A0000A9019F918F910F900FBE0F901F90189585
:100A1000FF920F931F93162F042FF22E880F7ADB6D
:100A2000813021F4C3DB21E030E00BC080E7CFDB75
:100A3000812FCDDB802FCBDB8F2DC9DBB7DB20E017
:100A400030E0C9011F910F91FF9008958091E3015B
:100A5000882369F12091A9013091AA018091E501D3
:100A600090E02817390718F11092AA011092A901F5
:100A700080E06091E40140E02091EA01C9DF85B1A6
:100A800090E1892785B92091EA013091EB012F5F30
:100A90003F4F3093EB012093EA018091E60190E013
:100AA0002817390721F41092EB011092EA010895FA
:100AB0001F93162F880F2EDB813021F477DB21E086
:100AC00030E007C086E683DB812F81DB6FDB20E02F
:100AD00030E0C9011F910895FF920F931F93162FC5
:100AE000042FF22E880F16DB813021F45FDB21E02A
:100AF00030E00BC08EE66BDB812F69DB802F67DB7C
:100B00008F2D65DB53DB20E030E0C9011F910F9191
:100B1000FF900895880FFEDA813021F447DB21E051
:100B200030E005C08FE653DB41DB20E030E0C90157
:100B300008951F93CF93DF932EE088E190E00FB6E6
:100B4000F894A895809360000FBE2093600084B154
:100B5000806384B988B1806388B92C98C1DA2D9AF2
:100B600020E030E140E355E785B1832785B9A895BA
:100B7000CA010197F1F7CA010197F1F72F5F2430FD
:100B800099F783EE91E061E070E047E050E087D4B0
:100B900080E0C0DF80E060E040E020E09DDF609129
:100BA000E801662311F080E083DF40DB84E291E01E
:100BB0009093ED018093EC019093EF018093EE010F
:100BC00082E091E069D20CDC539A20E04CE251E0E3
:100BD0002C9A84EF91E0FA013197F1F70197D9F758
:100BE0002C9884EF91E0FA013197F1F70197D9F74A
:100BF0002F5F223069F75398809181008160809344
:100C00008100B09A80916F00816080936F0078942A
:100C1000C0E3D5E7A89513DC19DF8091850188230F
:100C2000C9F310E00CDCCE010197F1F71F5F183C0F
:100C3000C9F7F0CF1F9320918701162F261708F4CC
:100C4000122F2091860130E028563E4FB901412FE6
:100C500050E0DBD180918601810F809386018091E5
:100C60008701811B80938701812F1F910895DF9257
:100C7000EF92FF920F931F93CF93DF932C9A809163
:100C8000A8018093980110929901809189018A3D71
:100C900011F085E63AC010918A01D0908C018091C4
:100CA0008B01C82FD0E0ED2CFF248DB79EB708979D
:100CB0000FB6F8949EBF0FBE8DBFEDB7FEB731964D
:100CC00083E191E0ADB7BEB712969C938E931197D6
:100CD00012831382D583C483F782E682CBD1EDB72A
:100CE000FEB738960FB6F894FEBF0FBEEDBF1130B9
:100CF00009F062C000918D016091EE017091EF01E9
:100D000081E4A2DA07FF04C086E68093990149C115
:100D10006091EE017091EF0182E496DA802F880FE6
:100D2000F9D96091EE017091EF01813021F481E2F7
:100D300090E074D150C083E487DA10E0219705C0B9
:100D4000E257FE4F808143DA1F5FE12FF0E0EC179E
:100D5000FD07B4F36091EE017091EF0184E474DA61
:100D6000DD2011F1000F802F81601EDA813099F0B3
:100D70000AE911E0C0E0D0E00894E108F10812C0EF
:100D8000CE15DF0511F034DA01C041DA2196FFEF0C
:100D90008F3F9F0721F488E68093990105C0D80111
:100DA0008D938D01CD1560F36091EE017091EF018F
:100DB0008AE54ADAFBD9F5C01230F9F480918D0149
:100DC00000918E0187FDA0CF880FA4D9813019F042
:100DD00010E0219709C087E680939901EBCFE25795
:100DE000FE4F8081F4D91F5FE12FF0E0EC17FD0783
:100DF000B4F3002309F0D5C0DDCF133029F580917D
:100E00008D01DD2009F480CF2C9A880F8160CCD928
:100E1000813041F00AE911E0C0E0D0E00894E10837
:100E2000F1080EC088E6809399010CC0CE15DF054D
:100E300011F0DED901C0EBD9F80181938F01219621
:100E4000CD15A0F32C98B6CF143049F5D0908D0174
:100E500080918E01D7FC58CF87FD56CF8D1508F4B1
:100E600053CFC0E0D0E0FF24082F10E00D19110986
:100E70000EC0EF2CED0C8E2D880F4CD9882329F451
:100E8000FE01E856FE4FE382219690D9F3948F2D10
:100E900090E0801791076CF3C0939A0182C01530DF
:100EA00041F480918D01882311F02D9A7AC02D98FC
:100EB00078C0163039F47AD988EB9BE00197F1F7C6
:100EC0000FD96FC0153631F480918D01882309F058
:100ED00066C067C0163659F483B190E034E0969549
:100EE00087953A95E1F7817080939A015AC0173639
:100EF000B9F4A3EEB1E0EDE8F1E087E001900D92E6
:100F00008150E1F78091E7018093EA011092EB01B3
:100F10006091E801662309F444C080E0C9DD41C066
:100F2000183651F4AAE9B1E0E3EEF1E087E0019070
:100F30000D928150E1F735C0193661F485B190E129
:100F4000892785B983EE91E061E070E047E050E0E9
:100F5000B6D227C01A3661F485B190E1892785B9E8
:100F600083EE91E061E070E047E050E098D219C074
:100F7000143639F483E180939A0186E380939B01D0
:100F800010C01B3671F485B190E1892785B980E0E6
:100F900090E065E59DD281E08093850102C02C9AA6
:100FA00001C02C98DF91CF911F910F91FF90EF908E
:100FB000DF9008951F93582F792F80918701882300
:100FC00001F1162F861708F4182F2091860130E0C2
:100FD00028573E4FC901652F412F50E016D0809110
:100FE0008601810F8093860180918701811B809308
:100FF0008701882309F43BDE90E0809187018823F4
:1010000009F491E0892F1F910895FB01DC0102C0D2
:1010100001900D9241505040D8F708950F931F93BF
:10102000CF93DF938C01EB018B8181FF1BC082FF8B
:101030000DC02E813F818C819D812817390764F472
:10104000E881F9810193F983E88306C0E885F98591
:10105000802F0995892B31F48E819F8101969F8382
:101060008E8302C00FEF1FEFC801DF91CF911F9158
:101070000F910895A0E0B0E0EFE3F8E0BBC2FE01FD
:101080003596619171918091EE019091EF01AF01E0
:1010900038D02096E2E0CAC20F931F93CF93DF931C
:1010A0008C01E091EE01F091EF01838181FF21C07D
:1010B000C0E0D0E00DC0E091EE01F091EF0120859D
:1010C0003185BF01F9010995892B11F0CFEFDFEFD1
:1010D000F80181918F01882371F7E091EE01F09181
:1010E000EF01208531858AE0BF01F9010995892B3F
:1010F00011F0CFEFDFEFCE01DF91CF911F910F9174
:101100000895ABE0B0E0E6E8F8E064C23C012B01F2
:101110005A01FC0117821682838181FD03C06FEFA3
:101120007FEFB9C19AE0892E1E010894211C311C61
:10113000F3012381F20123FD859123FF81912F018A
:10114000882309F4A5C1853239F423FD859123FF55
:1011500081912F01853221F490E0B3015FDFE8CF68
:10116000982FFF24EE249924FFE1FF15D0F09B3245
:1011700069F09C3228F4903259F0933291F40EC009
:101180009D3249F0903369F441E024C052E0F52AE1
:1011900084E0F82A28C098E0F92A25C0E0E1FE2A78
:1011A00022C0F7FC29C0892F80538A3070F4F6FEE4
:1011B00005C0989C902C1124980E15C0E89CE02C3A
:1011C0001124E80EF0E2FF2A0EC09E3229F4F6FC4C
:1011D0005FC140E4F42A07C09C3619F450E8F52AB0
:1011E00002C0983649F4F20123FD959123FF9191B5
:1011F0002F01992309F0B8CF892F8554833018F037
:101200008052833038F444E050E0A40EB51E5FE312
:1012100059830FC0933631F0933779F0933509F045
:1012200052C01FC0F5018081898342E050E0A40EC6
:10123000B51E610101E010E011C0F501C080D18050
:10124000F6FC03C06FEF7FEF02C0692D70E042E053
:1012500050E0A40EB51EC60154D18C015FE7F52203
:1012600013C0F501C080D180F6FC03C06FEF7FEFA3
:1012700002C0692D70E042E050E0A40EB51EC60128
:1012800035D18C0150E8F52AF3FE06C018C080E283
:1012900090E0B301C3DEEA948E2D90E008171907A1
:1012A000B0F30DC0F601F7FC8591F7FE81916F0157
:1012B00090E0B301B3DEE110EA9401501040011553
:1012C000110581F7E2C0943611F0993661F5F7FE09
:1012D00008C0F501208131814281538184E090E092
:1012E0000AC0F501808191819C01442737FD40951A
:1012F000542F82E090E0A80EB91E9FE6F92257FF16
:1013000009C050954095309521953F4F4F4F5F4F05
:10131000E0E8FE2ACA01B901A1012AE030E0FCD0D0
:10132000D82ED2183FC0953729F41F2D1F7E2AE0F2
:1013300030E01DC01F2D197F9F3661F0903720F4DB
:10134000983509F0A5C00FC0903739F0983709F0EB
:101350009FC004C028E030E00AC0106114FD146092
:1013600020E130E004C014FD166020E132E017FFF8
:1013700008C0F501608171818281938144E050E071
:1013800008C0F50180819181BC0180E090E042E0DD
:1013900050E0A40EB51EA101BFD0D82ED2188FE701
:1013A000F82EF122F6FE0BC05EEFF522D91438F4C8
:1013B000F4FE07C0F2FC05C08FEEF82202C01D2D1E
:1013C00001C0192DF4FE0DC0FE01ED0DF11D80814F
:1013D000803319F499EEF92208C01F5FF2FE05C0B0
:1013E00003C08F2D867809F01F5F0F2DF3FC13C00B
:1013F000F0FE0EC01E1510F09D2C0AC09D2C9E0CF8
:10140000911A1E2D05C080E290E0B30107DE1F5F38
:101410001E15C8F304C01E1510F4E11A01C0EE2415
:1014200004FF0EC080E390E0B301F8DD02FF1BC0B3
:1014300001FD03C088E790E00EC088E590E00BC096
:10144000802F867881F001FF02C08BE201C080E22C
:10145000F7FC8DE290E0B301E1DD05C080E390E0B0
:10146000B301DCDD9A94D914C8F3DA94F101ED0DDF
:10147000F11D808190E0B301D1DDDD20B1F705C021
:1014800080E290E0B301CADDEA94EE20C9F750CEC5
:10149000F30166817781CB012B96E2E1B7C0DC01D5
:1014A000CB01FC01F999FECF06C0F2BDE1BDF89A6F
:1014B000319600B40D9241505040B8F70895DC01C8
:1014C000CB0102C02D9105D041505040D8F708956E
:1014D000262FF999FECF1FBA92BD81BD20BD0FB650
:1014E000F894FA9AF99A0FBE01960895FC010590B6
:1014F000615070400110D8F7809590958E0F9F1F16
:101500000895FC016150704001900110D8F780955A
:1015100090958E0F9F1F0895FA01AA27283051F148
:10152000203181F1E8946F936E7F6E5F7F4F8F4F14
:101530009F4FAF4FB1E03ED0B4E03CD0670F781F73
:10154000891F9A1FA11D680F791F8A1F911DA11D58
:101550006A0F711D811D911DA11D20D009F4689491
:101560003F912AE0269F11243019305D3193DEF639
:10157000CF010895462F4770405D4193B3E00FD0EF
:10158000C9F7F6CF462F4F70405D4A3318F0495DDA
:1015900031FD4052419302D0A9F7EACFB4E0A695BD
:1015A0009795879577956795BA95C9F700976105DF
:1015B000710508959B01AC010A2E06945795479535
:1015C00037952795BA95C9F7620F731F841F951F2A
:1015D000A01D08952F923F924F925F926F927F923B
:1015E0008F929F92AF92BF92CF92DF92EF92FF9233
:1015F0000F931F93CF93DF93CDB7DEB7CA1BDB0BDF
:101600000FB6F894DEBF0FBECDBF09942A88398883
:1016100048885F846E847D848C849B84AA84B9848A
:10162000C884DF80EE80FD800C811B81AA81B98196
:10163000CE0FD11D0FB6F894DEBF0FBECDBFED01AA
:061640000895F894FFCFAD
:101646005AFF6C696E6B6D206465627567206D6FFD
:101656006465000A633A256420733A256420723A69
:10166600256420000000000300000000240134016E
:02167600000072
:00000001FF
