:020000040000FA
:2000000053C0B3C36CC06BC06AC069C068C067C066C065C064C063C062C023C560C05FC083
:200020005EC05DC05CC05BC05AC059C058C057C056C055C0040309040E0354006800690077
:200040006E0067004D000C034C0069006E006B004D001201100100000008A0201041000156
:20006000010200010902220001010080FA0904000001030000000921010100012216000756
:200080000581030800640600FF0901A101150026FF007508850195100900B20201850295FE
:2000A000830900B20201C00011241FBECFEFD4E0DEBFCDBF11E0A0E0B1E0ECE7F1E102C029
:2000C00005900D92A431B107D9F711E0A4E1B1E001C01D92A63DB107E1F77ED54DC890CFDE
:2000E0001092B90084E38093B800089520E030E094E00AC0892F8A95F1F72536310511F433
:2001000081E008952F5F3F4F8091BC0087FFF2CF80E00895482F84EA8093BC0020E030E0F0
:2001200094E008C0892F8A95F1F72536310521F12F5F3F4F8091BC0087FFF4CF1FC080315F
:20014000D9F44093BB0084E88093BC0020E030E094E008C0892F8A95F1F72536310561F01C
:200160002F5F3F4F8091BC0087FFF4CF0DC080E0903419F081E0089581E008958091B9008D
:20018000887F8830E1F6DDCF9091B900987F983171F780E00895982F44EA34E824E940930D
:2001A000BC008091BC0087FFFCCF8091B900887F883011F0803199F79093BB003093BC003D
:2001C0008091BC0087FFFCCF8091B900887F803211F0883539F42093BC008091BC0084FDD6
:2001E000FCCFDDCF089596DF089584E98093BC0090E024E006C0822F8A95F1F7953629F0C7
:200200009F5F8091BC0084FDF6CF08958093BB0084E88093BC0020E030E094E008C0892F23
:200220008A95F1F72536310539F02F5F3F4F8091BC0087FFF4CF03C091E0892F0895809131
:20024000B90090E0887F8832B9F7F7CF84EC8093BC0020E030E094E008C0892F8A95F1F7F4
:200260002536310539F02F5F3F4F8091BC0087FFF4CF04C02FEF3FEFC90108958091BB004F
:20028000282F30E0F9CF84E88093BC0020E030E094E008C0892F8A95F1F72536310539F02F
:2002A0002F5F3F4F8091BC0087FFF4CF04C02FEF3FEFC90108958091BB00282F30E0F9CF9A
:2002C0001092C5008CE08093C400E0ECF0E080818260808388E18093C10008951F93182F1F
:2002E0008A3011F48DE0FADF8091C00085FFFCCF1093C60080E090E01F910895EF92FF9241
:200300000F931F93CF93DF937C018091140190911501892B09F092C006E111E08091C00033
:2003200087FFFCCF8091C00084FF03C02EEF3FEF99C08091C00083FD93C09091C6009D3059
:2003400011F09A3061F48AE0F8018083B701C6DF86E191E090931501809314016FC0993089
:2003600009F490E2892F80528F3510F0903A68F0F1E005361F0711F487E004C0F80191931F
:200380008F01892FB701AADFC9CF923121F1933138F4933009F464C0983009F0BFCF09C07B
:2003A000973109F440C09F3721F0953109F0B6CF2AC0F1E006311F0709F008F4AFCF88E05A
:2003C000B7018CDF80E2B70189DF88E0B70186DF01501040A3CF8DE0B70180DFC6E1D1E004
:2003E00003C08991B7017ADFC017D107D0F396CF88E0B70173DF80E2B70170DF88E0B7013D
:200400006DDF0150104081E00631180709F080F785CF88E0B70162DF80E2B7015FDF88E053
:20042000B7015CDF8E01E1E006311E0709F008F475CFE8018A91803261F770CFE091140111
:20044000F09115018191F0931501E09314018A3021F41092150110921401282F30E002C06B
:200460002FEF3FEFC901DF91CF911F910F91FF90EF900895E9E6F0E0808182608083E89A94
:200480008BE480939D018AE580939C0108951F93DC01162F80919C0184FF07C080919D0105
:2004A00098E8892780939D0103C08AE580939C01912FEEE9F1E08D91819391501916DCF300
:2004C0008EE991E0612F4DD11C5F10939C011F9108951F93CF93DF936091AD01635067FD42
:2004E000C1C08091AA01CCE0D0E0C81BD109CF54DE4F8091A9018D3209F0A2C0683009F0F0
:20050000AFC083EC809391018AE580930001109266018881807639F0CE0190D2282F8F3F4E
:2005200009F47DC083C09A8110929A018981882321F410929B0122E06BC0853019F49093CC
:20054000AE0165C0863009F04EC08B81813041F482E590E09093AC018093AB0122E13FC0B0
:20056000823041F484E690E09093AC018093AB0122E235C08330F1F4992341F484E390E0D2
:200580009093AC018093AB0124E029C0913041F488E390E09093AC018093AB012EE01FC092
:2005A0009230E1F486E490E09093AC018093AB012CE015C0813241F486E790E09093AC01C5
:2005C0008093AB0129E00BC0823241F486E890E09093AC018093AB0126E101C020E080E406
:2005E0008093660123C0883021F421E080EB91E011C0893019F49093B00109C08A3011F401
:2006000021E006C08B3019F48BE480939D0120E08AE991E09093AC018093AB0107C08881E8
:2006200087FD2E8180E88093660106C08F81882319F48E81821708F0822F8093010110C0E1
:200640008091660187FF0CC0CE01C2D48F3F21F48EE18093000104C0882311F010920101F1
:200660001092AD018091000184FF58C0809101018F3F09F453C0182F893008F018E0811B00
:20068000809301018091910198E8892780939101112391F18091660187FF08C082E991E075
:2006A000612FF2D2182F893098F526C02091AB013091AC0186FF0DC0A2E9B1E080E090E06A
:2006C000F901E80FF91FE491ED9301961817C1F708C0912FD901E2E9F1E08D91819391508D
:2006E000E1F71150812F90E01F5F0196820F931F9093AC018093AB0182E991E0612F31D04D
:20070000612F6C5F6C3041F08FEF8093010104C08FEF809301016EE16093000194E189B1D5
:200720008C7031F49150D9F71092AE011092A801DF91CF911F910895A82FB92F80E090E09F
:2007400041E050EA60956F5F58F42D9138EF82279795879510F0842795273F5FC8F3F3CFD7
:200760000895EADF8D939D930895CF93CFB7CF93C3954B9BE9F74B9B09C04B9B07C04B9B7C
:2007800005C04B9B03C04B9B01C0A3C0DF93C091AA01DD27CF54DE4F4B9B02C0DF91EBCF4D
:2007A0002F930F931F9309B12FEF03FB20F94F933F9319B14FEF012703FB21F93BE031C02C
:2007C0004E7F012F19B1216028C0102F4D7F2260000009B129C04B7F2460012F000019B171
:2007E0002BC019B1477F28602AC04F7E09B120612CC04F7D19B120622FC04F7B09B1206409
:2008000032C0422709B149934FEF0000102713FB20F919B11C70C9F1297F91F2012703FBEA
:2008200021F909B1237F89F2315058F1102713FB22F919B1277E79F2012703FB23F92F7CD6
:2008400081F209B1102713FB24F92F7971F200C019B1012703FB25F92F7359F200C009B1C9
:20086000102713FB26F9223040F200C019B1012703FB27F9243028F64F77206819B1000036
:20088000F9CF11E01CBB002719C03B503195C31BD04011E01CBB0881033CF9F00B34E9F0F8
:2008A0002091A8011981110F1213EDCF4A81441F093641F10D3211F0013E29F70093AF01C2
:2008C0003F914F911F910F912F91DF91CCB3C0FD4FCFCF91CFBFCF9118952091AF012223ED
:2008E00079F31091AD01112369F534306AF13093AD012093A9011091AA013BE0311B3093A8
:20090000AA0122C00091AD010130E4F40AE54F7049F43091000134FD19C000930001C1E90D
:20092000D1E018C030919C0134FD10C000939C01CDE9D1E00FC02795A8F45150A9F4220FA2
:200940000000F9CF4AE503C042ED01C0432FC4E1D0E032E01AB11C605B9A1AB90BB120E445
:200960001CE05F93012756E00BB9279520F4515021F4220FF9CF012756E000003B5A0BB931
:20098000D0F2279528F4515029F4220F0000F9CF012756E027950BB920F4515021F4220F2D
:2009A000F9CF012756E0299133230BB921F6037F1091AE01110FC651D0400BB911F01093A5
:2009C000A80111E01CBB08601AB1137F402F437F5F9100C000C00BB91AB94BB971CF9C01C8
:2009E000F999FECF32BD21BDF89A80B508959C01F999FECF1FBA32BD21BD60BD0FB6F89457
:200A0000FA9AF99A0FBE089585B190E1892785B90895892B11F02C9A08952C98089583B166
:200A200090E024E0969587952A95E1F781700895892B11F02D9A08952D980895FC0180815D
:200A40008076803261F48181813011F0893039F480E180936A01109269018FEF089580E099
:200A600008951F920F920FB60F9211248F939F9380918F01909190010196909390018093E7
:200A80008F0180918F0190919001069769F41092900110928F0180918D0190918E0101962E
:200AA00090938E0180938D019F918F910F900FBE0F901F901895FF920F931F93162F042FCF
:200AC000F22E880F27DB813021F48FDB21E030E00BC080E79BDB812F99DB802F97DB8F2D73
:200AE00095DB83DB20E030E0C9011F910F91FF9008958091C701882369F120918D013091F4
:200B00008E018091C90190E02817390718F110928E0110928D0180E06091C80140E0209127
:200B2000CE01C9DF85B190E1892785B92091CE013091CF012F5F3F4F3093CF012093CE0167
:200B40008091CA0190E02817390721F41092CF011092CE0108951F93162F880FDBDA813041
:200B600021F443DB21E030E007C086E64FDB812F4DDB3BDB20E030E0C9011F910895FF922E
:200B80000F931F93162F042FF22E880FC3DA813021F42BDB21E030E00BC08EE637DB812F57
:200BA00035DB802F33DB8F2D31DB1FDB20E030E0C9011F910F91FF900895880FABDA813083
:200BC00021F413DB21E030E005C08FE61FDB0DDB20E030E0C90108952EE088E190E00FB6C2
:200BE000F894A895809360000FBE2093600084B1806384B988B1806388B92C9871DA2D9A51
:200C000020E030E140E355E785B1832785B9A895CA010197F1F7CA010197F1F72F5F243091
:200C200099F787EC91E061E070E047E050E02FEE34E002D280E0C1DF80E060E040E020E093
:200C40009EDF6091CC01662311F080E084DF12DC539A20E048EB5BE004C0A895CA0101975F
:200C6000F1F72150D1F7539880918100816080938100B09A80916F00816080936F00789428
:200C8000A89527DC36DFFCCF1F9320916A01162F261708F4122F2091690130E023583E4F74
:200CA000B901412F50E0BFD110926C0110926B0180916901810F8093690180916A01811B8D
:200CC00080936A01812F1F910895DF92EF92FF920F931F93CF93DF9380917D018F5F80935E
:200CE0007D0110927E0180916D018A3D11F085E611C080916E01F0906F01D09070018130E0
:200D000009F05AC00091710182E091E0C9D107FF04C086E680937E0153C185E091E0C0D10D
:200D2000802F880FF7D9813021F488E091E0B8D154C08AE091E0B4D110E0CF2DD0E02197AD
:200D400005C0EE58FE4F808161DA1F5FE12FF0E0EC17FD07B4F38DE091E0A2D1DD2039F17B
:200D60002C9A000F802F81603EDA8130B1F05FE7E52E51E0F52EC0E0D0E00D2D10E001502C
:200D8000104012C0C017D10711F060DA01C07BDA21962FEF8F3F920721F488E680937E01E0
:200DA00005C0F70181937F01CD1560F32C9880E191E076D11ADA04C1823009F580917101E4
:200DC0000091720187FDA5CF880FA4D9813029F010E0CF2DD0E0219709C087E680937E011D
:200DE000E9CFEE58FE4F808111DA1F5FE12FF0E0EC17FD07B4F3002309F0E2C0DBCF833095
:200E000041F580917101DD2009F483CF2C9A880F8160E9D9813059F04FE7E42E41E0F42E48
:200E2000C0E0D0E00D2D10E0015010400EC088E680937E010CC0C017D10711F007DA01C0AB
:200E400022DAF70181937F012196CD15A0F32C98B1CF843049F5D090710180917201D7FC7F
:200E600058CF87FD56CF8D1508F453CFC0E0D0E0FF24082F10E00D1911090EC0EF2CED0C26
:200E80008E2D880F47D9882329F4FE01E358FE4FE3822196AAD9F3948F2D90E08017910710
:200EA0006CF3C0937F018CC0853041F480917101882311F02D9A84C02D9882C0863039F4A6
:200EC00094D988EB9BE00197F1F70AD979C0853641F480917101882311F02C9A71C02C9841
:200EE0006FC0863659F483B190E034E0969587953A95E1F7817080937F0162C08736B9F404
:200F0000A7ECB1E0E1E7F1E087E001900D928150E1F78091CB018093CE011092CF016091B2
:200F2000CC01662309F44CC080E015DE49C0883651F4AFE7B1E0E7ECF1E087E001900D9291
:200F40008150E1F73DC0893671F485B190E1892785B981E090E067EC71E047E050E027EF50
:200F600034E084D02DC08A3671F485B190E1892785B987EC91E061E070E047E050E02FEE79
:200F800034E05AD01DC0843639F483E180937F0187E38093800114C08B3691F485B190E199
:200FA000892785B9F999FECF1FBA80E090E092BD81BD85E580BD0FB6F894FA9AF99A0FBEC2
:200FC000DF91CF911F910F91FF90EF90DF9008951F93582F792F80916A01882301F1162F98
:200FE000861708F4182F2091690130E023593E4FC901652F412F50E016D080916901810FEE
:201000008093690180916A01811B80936A01882309F45BDE90E080916A01882309F491E0D7
:20102000892F1F910895FB01DC0102C001900D9241505040D8F70895A0E0B0E0E1E2F8E0A8
:201040006EC07C01EB018A01690109C0CE012196F6010995F70181937F01015010400115DD
:201060001105A1F7CDB7DEB7E8E075C0A0E0B0E0EBE3F8E054C0EC017B018A01690109C0BB
:20108000CE012196F70161917F01F60109950150104001151105A1F7CDB7DEB7E8E05BC06A
:2010A0000F931F93CF93DF938C01E091D201F091D301838181FF21C0C0E0D0E00DC0E091EF
:2010C000D201F091D30120853185BF01F9010995892B11F0CFEFDFEFF80181918F018823AE
:2010E00071F7E091D201F091D301208531858AE0BF01F9010995892B11F0CFEFDFEFCE01C2
:20110000DF91CF911F910F9108952F923F924F925F926F927F928F929F92AF92BF92CF9257
:20112000DF92EF92FF920F931F93CF93DF93CDB7DEB7CA1BDB0B0FB6F894DEBF0FBECDBFD9
:2011400009942A88398848885F846E847D848C849B84AA84B984C884DF80EE80FD800C811C
:201160001B81AA81B981CE0FD11D0FB6F894DEBF0FBECDBFED010895F894FFCF5AFF412EAF
:1011800000422E002100432E00442E005A2E0A0059
:2018000057C08BC070C06FC06EC06DC06CC06BC06AC069C068C067C066C065C064C063C021
:2018200062C061C060C05FC05EC05DC05CC05BC05AC059C0040309040E0354006800690037
:201840006E0067004D0014034C0069006E006B004D0042006F006F007400120110010000BC
:201860000008A02010410001010200010902220001010080FA090400000103000000092166
:2018800001010001222100070581030800C80600FF0901A101150026FF0075088501950619
:2018A0000900B20201850295830900B20201C00011241FBECFEFD4E0DEBFCDBF11E0A0E02F
:2018C000B1E0EEECFFE102C005900D92AA30B107D9F711E0AAE0B1E001C01D92AC33B10752
:2018E000E1F74CD172C38CCFA82FB92F80E090E041E050EA60956F5F58F42D9138EF8227DC
:201900009795879510F0842795273F5FC8F3F3CF0895EADF8D939D930895CF93CFB7CF9360
:20192000C3954B9BE9F74B9B09C04B9B07C04B9B05C04B9B03C04B9B01C0A3C0DF93C0910C
:201940001F01DD27CA5DDE4F4B9B02C0DF91EBCF2F930F931F9309B12FEF03FB20F94F9356
:201960003F9319B14FEF012703FB21F93BE031C04E7F012F19B1216028C0102F4D7F226084
:20198000000009B129C04B7F2460012F000019B12BC019B1477F28602AC04F7E09B1206167
:2019A0002CC04F7D19B120622FC04F7B09B1206432C0422709B149934FEF0000102713FBB8
:2019C00020F919B11C70C9F1297F91F2012703FB21F909B1237F89F2315058F1102713FB8D
:2019E00022F919B1277E79F2012703FB23F92F7C81F209B1102713FB24F92F7971F200C0AB
:201A000019B1012703FB25F92F7359F200C009B1102713FB26F9223040F200C019B10127B7
:201A200003FB27F9243028F64F77206819B10000F9CF11E01CBB002719C03B503195C31B3F
:201A4000D04011E01CBB0881033CF9F00B34E9F020911D011981110F1213EDCF4A81441F4D
:201A6000093641F10D3211F0013E29F7009324013F914F911F910F912F91DF91CCB3C0FD32
:201A80004FCFCF91CFBFCF91189520912401222379F310912201112321F5343022F130935E
:201AA000220120931E0110911F013BE0311B30931F0119C00091220101309CF40AE54F702A
:201AC00081F43091000134FD10C000930001C2E1D1E00FC02795A8F45150A9F4220F000050
:201AE000F9CF4AE503C042ED01C0432FC4E1D0E032E01AB11C605B9A1AB90BB120E41CE098
:201B00005F93012756E00BB9279520F4515021F4220FF9CF012756E000003B5A0BB9D0F2B9
:201B2000279528F4515029F4220F0000F9CF012756E027950BB920F4515021F4220FF9CF75
:201B4000012756E0299133230BB921F6037F10912301110FC651D0400BB911F010931D0128
:201B600011E01CBB08601AB1137F402F437F5F9100C000C00BB91AB94BB97ACF2F923F92C1
:201B80004F925F926F927F928F929F92AF92BF92CF92DF92EF92FF920F931F93DF93CF9371
:201BA00000D000D0CDB7DEB7249A2C9A23982B9A80E090E0F4D180930A01853521F480E086
:201BC00090E060E0F4D188E28A95F1F780910A01853511F01B99CBC181E085BF82E085BFBD
:201BE00080916900836080936900E89A539A20E048EB5BE0A895CA010197F1F72150D1F76E
:201C000053987894FF2400E063E0E62E5EE8452E58E1552E46E4242E48E1342E34E3A32E0F
:201C200038E1B32E2EEE822E2FEF922E2EE738E1820E931E9AE5692E98E1792E82E0C82E03
:201C400081E0D82EA89590912201292F235027FD28C180911F014CE050E0481B51094A5DD3
:201C60005E4F5C834B8380911E018D3209F0B6C0283009F014C153EC509312016AE560930F
:201C8000000110920B01AB81BC812C91822F807611969C9111978823C9F0993071F4129612
:201CA0008C91823031F410920E0127FD86C09FEF88C0B1E0B0930F016AC1913009F067C14E
:201CC000D0922101C092200127E062C1EB81FC81828110921B01992331F410921C018BE12D
:201CE00091E022E065C0953019F4809323015DC0963009F04AC0AB81BC8113968C9181307D
:201D000031F4709221016092200122E13AC0823031F4909221018092200122E232C0833073
:201D2000E9F4EB81FC818281882331F4B0922101A092200124E025C0813041F428E338E160
:201D400030932101209320012EE01BC08230C1F4309221012092200124E113C0813241F403
:201D60004EE758E1509321014093200129E009C0823231F4509221014092200121E201C096
:201D800020E050E450930B0103C1983019F485E291E009C0993019F48093250106C09A3047
:201DA00021F48BE191E021E003C08BE191E020E09093210180932001EBC0AB81BC81169657
:201DC0009C9180E880930B0106C0EB81FC819681921708F0922F9093010161C080910B01C4
:201DE00087FF5DC040910C0150910D015A83498380910E01882389F4AB81BC811196BC9125
:201E0000B983EB81FC81F281FA832B813C812C5F3F4F3C832B83292F2750322F380F309384
:201E20000E0189818F7351F4F894E981FA81E0925700E895789407B600FCFDCFF8944981A4
:201E40005A81AB81BC818D919C9161E0FA010C0160935700E895112478943296FA83E983F1
:201E600089818F7351F4F89465E0FA0160935700E895789407B600FCFDCF225031F08B814E
:201E80009C8102969C838B83CCCFA981BA81B0930D01A0930C0137FF02C010920101109291
:201EA00022018091000184FF49C0809101018F3F09F444C0182F893008F018E0811B8093E0
:201EC00001018091120198E8892780931201112341F1209120013091210180910B0186FFC9
:201EE0000DC0A3E1B1E080E090E0F901E80FF91FE491ED9301961817C1F708C0D901912F52
:201F0000E3E1F1E08D9181939150E1F71150812F90E01F5F0196820F931F90932101809310
:201F2000200183E191E0612FF4DC612F6C5F6C3019F08FEF809301016093000194E189B115
:201F40008C7031F49150D9F71092230110921D0180910F01882321F0FA9411F4015039F03F
:201F600080910A01853509F46DCE1B9B6BCEF89481E180935700E8951DBA1092690081E04C
:201F800085BF15BEE0911001F0911101099520E0EB81FC818781882309F417CF1BCFF9997C
:201FA000FECF92BD81BDF89A992780B50895262FF999FECF1FBA92BD81BD20BD0FB6F8945B
:181FC000FA9AF99A0FBE01960895F894FFCF5AFF0140000020000000CD
:0400000500001800DF
:00000001FF
